:020000040800F2
:100000000050002049A400083517000837170008E1
:10001000391700083B1700083D17000800000000D2
:1000200000000000000000000000000051A20008D5
:100030003F17000800000000F1A2000835A30008E7
:1000400091A4000891A4000891A4000891A40008BC
:1000500091A4000891A4000891A4000891A40008AC
:1000600091A4000891A4000891A400084117000879
:1000700091A4000891A4000891A4000891A400088C
:1000800091A4000891A4000891A4000891A400087C
:1000900091A4000891A4000891A4000891A400086C
:1000A00091A400085117000891A4000891A4000829
:1000B00091A400086117000891A4000891A4000809
:1000C00091A4000891A4000891A4000891A400083C
:1000D00091A4000891A4000891A4000891A400082C
:1000E00091A4000891A4000891A400080000000059
:1000F0000000000000000000000000000000000000
:0C01000000000000000000005FF808F1A3
:10011000034613F8012B002AFBD1181A0138704747
:1001200081F0004102E000BF83F0004330B54FEAA8
:1001300041044FEA430594EA050F08BF90EA020F15
:100140001FBF54EA000C55EA020C7FEA645C7FEAA8
:10015000655C00F0E2804FEA5454D4EB5555B8BFCB
:100160006D420CDD2C4480EA020281EA030382EA3C
:10017000000083EA010180EA020281EA0303362DCE
:1001800088BF30BD11F0004F4FEA01314FF4801CA1
:100190004CEA113102D0404261EB410113F0004FB3
:1001A0004FEA03334CEA133302D0524263EB43036A
:1001B00094EA050F00F0A780A4F10104D5F1200E08
:1001C0000DDB02FA0EFC22FA05F2801841F1000163
:1001D00003FA0EF2801843FA05F359410EE0A5F137
:1001E00020050EF1200E012A03FA0EFC28BF4CF068
:1001F000020C43FA05F3C01851EBE37101F000451E
:1002000007D54FF0000EDCF1000C7EEB00006EEB2A
:100210000101B1F5801F1BD3B1F5001F0CD34908B4
:100220005FEA30004FEA3C0C04F101044FEA44520B
:1002300012F5800F80F09A80BCF1004F08BF5FEA92
:10024000500C50F1000041EB045141EA050130BD72
:100250005FEA4C0C404141EB0101013C28BFB1F584
:10026000801FE9D291F0000F04BF01460020B1FACF
:1002700081F308BF2033A3F10B03B3F120020CDAA2
:100280000C3208DD02F1140CC2F10C0201FA0CF080
:1002900021FA02F10CE002F11402D8BFC2F1200CE5
:1002A00001FA02F120FA0CFCDCBF41EA0C0190409B
:1002B000E41AA2BF01EB0451294330BD6FEA0404E4
:1002C0001F3C1CDA0C340EDC04F11404C4F12002CF
:1002D00020FA04F001FA02F340EA030021FA04F3E1
:1002E00045EA030130BDC4F10C04C4F1200220FA38
:1002F00002F001FA04F340EA0300294630BD21FA76
:1003000004F0294630BD94F0000F83F4801306BF3B
:1003100081F480110134013D4EE77FEA645C18BF2F
:100320007FEA655C29D094EA050F08BF90EA020FC6
:1003300005D054EA000C04BF1946104630BD91EABE
:10034000030F1EBF0021002030BD5FEA545C05D1C1
:100350004000494128BF41F0004130BD14F5800400
:100360003CBF01F5801130BD01F0004545F0FE4174
:1003700041F470014FF0000030BD7FEA645C1ABFA9
:10038000194610467FEA655C1CBF0B46024650EAE0
:10039000013406BF52EA033591EA030F41F400210C
:1003A00030BD00BF90F0000F04BF0021704730B592
:1003B0004FF4806404F132044FF000054FF0000167
:1003C00050E700BF90F0000F04BF0021704730B528
:1003D0004FF4806404F1320410F0004548BF4042FD
:1003E0004FF000013EE700BF42004FEAE2014FEA52
:1003F00031014FEA02701FBF12F07F4393F07F4F2D
:1004000081F06051704732F07F4208BF704793F02F
:100410007F4F04BF41F40021704730B54FF4607442
:1004200001F0004521F000411CE700BF50EA010245
:1004300008BF704730B54FF000050AE050EA0102EE
:1004400008BF704730B511F0004502D5404261EB5E
:1004500041014FF4806404F132045FEA915C3FF49F
:10046000D8AE4FF003025FEADC0C18BF03325FEA3C
:10047000DC0C18BF033202EBDC02C2F1200300FAED
:1004800003FC20FA02F001FA03FE40EA0E0021FA12
:1004900002F11444BDE600BF70B54FF0FF0C4CF400
:1004A000E06C1CEA11541DBF1CEA135594EA0C0FB2
:1004B00095EA0C0F00F0DEF82C4481EA030621EAED
:1004C0004C5123EA4C5350EA013518BF52EA033528
:1004D00041F4801143F4801338D0A0FB02CE4FF0DA
:1004E0000005E1FB02E506F00042E0FB03E54FF00A
:1004F0000006E1FB03569CF0000F18BF4EF0010E02
:10050000A4F1FF04B6F5007F64F5407404D25FEAFD
:100510004E0E6D4146EB060642EAC62141EA5551B0
:100520004FEAC52040EA5E504FEACE2EB4F1FD0CF2
:1005300088BFBCF5E06F1ED8BEF1004F08BF5FEA70
:10054000500E50F1000041EB045170BD06F0004622
:1005500046EA010140EA020081EA0301B4EB5C04CF
:10056000C2BFD4EB0C0541EA045170BD41F48011C7
:100570004FF0000E013C00F3AB8014F1360FDEBFEC
:10058000002001F0004170BDC4F10004203C35DAC8
:100590000C341BDC04F11404C4F1200500FA05F34B
:1005A00020FA04F001FA05F240EA020001F00042EC
:1005B00021F0004110EBD37021FA04F642EB060162
:1005C0005EEA430E08BF20EAD37070BDC4F10C048C
:1005D000C4F1200500FA04F320FA05F001FA04F250
:1005E00040EA020001F0004110EBD37041F100013C
:1005F0005EEA430E08BF20EAD37070BDC4F1200547
:1006000000FA05F24EEA020E20FA04F301FA05F2AE
:1006100043EA020321FA04F001F0004121FA04F256
:1006200020EA020000EBD3705EEA430E08BF20EA26
:10063000D37070BD94F0000F0FD101F00046400060
:1006400041EB010111F4801F08BF013CF7D041EAE2
:10065000060195F0000F18BF704703F000465200E6
:1006600043EB030313F4801F08BF013DF7D043EAB7
:100670000603704794EA0C0F0CEA135518BF95EA6D
:100680000C0F0CD050EA410618BF52EA4306D1D1F4
:1006900081EA030101F000414FF0000070BD50EA13
:1006A000410606BF1046194652EA430619D094EA9D
:1006B0000C0F02D150EA013613D195EA0C0F05D187
:1006C00052EA03361CBF104619460AD181EA0301DB
:1006D00001F0004141F0FE4141F470014FF0000093
:1006E00070BD41F0FE4141F4780170BD70B54FF02E
:1006F000FF0C4CF4E06C1CEA11541DBF1CEA1355AE
:1007000094EA0C0F95EA0C0F00F0A7F8A4EB05048F
:1007100081EA030E52EA03354FEA013100F0888086
:100720004FEA03334FF0805545EA131343EA12634F
:100730004FEA022245EA111545EA10654FEA002604
:100740000EF000419D4208BF964244F1FD0404F5BD
:10075000407402D25B084FEA3202B61A65EB030519
:100760005B084FEA32024FF480104FF4002CB6EBD6
:10077000020E75EB030E22BFB61A754640EA0C0056
:100780005B084FEA3202B6EB020E75EB030E22BF96
:10079000B61A754640EA5C005B084FEA3202B6EBD7
:1007A000020E75EB030E22BFB61A754640EA9C0096
:1007B0005B084FEA3202B6EB020E75EB030E22BF66
:1007C000B61A754640EADC0055EA060E18D04FEA24
:1007D000051545EA16754FEA06164FEAC30343EAC4
:1007E00052734FEAC2025FEA1C1CC0D111F4801F91
:1007F0000BD141EA00014FF000004FF0004CB6E78A
:1008000011F4801F04BF01430020B4F1FD0C88BF28
:10081000BCF5E06F3FF6AFAEB5EB030C04BFB6EB33
:10082000020C5FEA500C50F1000041EB045170BD26
:100830000EF0004E4EEA113114EB5C04C2BFD4EB53
:100840000C0541EA045170BD41F480114FF0000ED7
:10085000013C90E645EA060E8DE60CEA135594EA53
:100860000C0F08BF95EA0C0F3FF43BAF94EA0C0F56
:100870000AD150EA01347FF434AF95EA0C0F7FF4CB
:1008800025AF104619462CE795EA0C0F06D152EA1F
:1008900003353FF4FDAE1046194622E750EA410603
:1008A00018BF52EA43067FF4C5AE50EA41047FF414
:1008B0000DAF52EA43057FF4EBAE12E74FF0FF3C79
:1008C00006E000BF4FF0010C02E000BF4FF0010C4A
:1008D0004DF804CD4FEA410C7FEA6C5C4FEA430CC3
:1008E00018BF7FEA6C5C1BD001B050EA410C0CBF12
:1008F00052EA430C91EA030F02BF90EA020F002074
:10090000704710F1000F91EA030F58BF994208BFDA
:1009100090422CBFD8176FEAE37040F00100704797
:100920004FEA410C7FEA6C5C02D150EA013C07D1EE
:100930004FEA430C7FEA6C5CD6D152EA033CD3D039
:100940005DF8040B704700BF8446104662468C4633
:100950001946634600E000BF01B5FFF7B7FF002866
:1009600048BF10F1000F01BD4DF808EDFFF7F4FF8F
:100970000CBF012000205DF808FB00BF4DF808ED1A
:10098000FFF7EAFF34BF012000205DF808FB00BF3D
:100990004DF808EDFFF7E0FF94BF012000205DF85F
:1009A00008FB00BF4DF808EDFFF7CEFF94BF012014
:1009B00000205DF808FB00BF4DF808EDFFF7C4FF0D
:1009C00034BF012000205DF808FB00BF4FEA410C56
:1009D0007FEA6C5C02D150EA013C0AD14FEA430C39
:1009E0007FEA6C5C02D152EA033C02D14FF0000076
:1009F00070474FF0010070474FEA410212F50012B4
:100A000015D211D56FF47873B3EB625212D94FEA55
:100A1000C12343F0004343EA505311F0004F23FA3F
:100A200002F018BF404270474FF00000704750EA94
:100A3000013005D111F0004008BF6FF00040704751
:100A40004FF00000704700BF4FEA4102B2F1E043AF
:100A500024BFB3F5001CDCF1FE5C0DD901F0004CA5
:100A60004FEAC0024CEA5070B2F1004F40EB8300F5
:100A700008BF20F00100704711F0804F21D113F121
:100A80003872BCBF01F00040704741F480114FEA5A
:100A90005252C2F11802C2F1200C10FA0CF320FAE3
:100AA00002F018BF40F001004FEAC1234FEAD32300
:100AB00003FA0CFC40EA0C0023FA02F34FEA43036A
:100AC000CCE77FEA625307D150EA01331EBF4FF0F3
:100AD000FE4040F44000704701F0004040F0FE400E
:100AE00040F40000704700BF80F0004002E000BF0B
:100AF00081F0004142001FBF5FEA410392EA030F09
:100B00007FEA226C7FEA236C6AD04FEA1262D2EB52
:100B10001363C1BFD218414048404140B8BF5B4257
:100B2000192B88BF704710F0004F40F4000020F0F0
:100B30007F4018BF404211F0004F41F4000121F006
:100B40007F4118BF494292EA030F3FD0A2F1010250
:100B500041FA03FC10EB0C00C3F1200301FA03F18E
:100B600000F0004302D5494260EB4000B0F5000FB1
:100B700013D3B0F1807F06D340084FEA310102F170
:100B80000102FE2A51D2B1F1004F40EBC25008BF22
:100B900020F0010040EA03007047490040EB0000EC
:100BA000013A28BFB0F5000FEDD2B0FA80FCACF1ED
:100BB000080CB2EB0C0200FA0CF0AABF00EBC2501A
:100BC00052421843BCBFD0401843704792F0000F08
:100BD00081F4000106BF80F400000132013BB5E75B
:100BE0004FEA41037FEA226C18BF7FEA236C21D0D1
:100BF00092EA030F04D092F0000F08BF0846704736
:100C000090EA010F1CBF0020704712F07F4F04D103
:100C1000400028BF40F00040704712F100723CBF16
:100C200000F50000704700F0004343F0FE4040F440
:100C3000000070477FEA226216BF08467FEA2363FE
:100C40000146420206BF5FEA412390EA010F40F4E9
:100C5000800070474FF0000304E000BF10F0004335
:100C600048BF40425FEA000C08BF704743F096431C
:100C700001464FF000001CE050EA010208BF704737
:100C80004FF000030AE000BF50EA010208BF7047BE
:100C900011F0004302D5404261EB41015FEA010CD3
:100CA00002BF84460146002043F0B64308BFA3F1CB
:100CB0008053A3F50003BCFA8CF2083AA3EBC253AD
:100CC00010DB01FA02FC634400FA02FCC2F12002CC
:100CD000BCF1004F20FA02F243EB020008BF20F003
:100CE0000100704702F1200201FA02FCC2F1200269
:100CF00050EA4C0021FA02F243EB020008BF20EA5E
:100D0000DC7070474FF0FF0C1CEAD0521EBF1CEA8B
:100D1000D15392EA0C0F93EA0C0F6FD01A4480EA79
:100D2000010C400218BF5FEA41211ED04FF0006362
:100D300043EA501043EA5111A0FB01310CF000408E
:100D4000B1F5000F3EBF490041EAD3715B0040EAB4
:100D5000010062F17F02FD2A1DD8B3F1004F40EB84
:100D6000C25008BF20F00100704790F0000F0CF057
:100D7000004C08BF49024CEA502040EA51207F3A1B
:100D8000C2BFD2F1FF0340EAC250704740F40000F6
:100D90004FF00003013A5DDC12F1190FDCBF00F0E7
:100DA00000407047C2F10002410021FA02F1C2F195
:100DB000200200FA02FC5FEA310040F1000053EA31
:100DC0004C0308BF20EADC70704792F0000F00F07F
:100DD000004C02BF400010F4000F013AF9D040EA85
:100DE0000C0093F0000F01F0004C02BF490011F419
:100DF000000F013BF9D041EA0C018FE70CEAD15317
:100E000092EA0C0F18BF93EA0C0F0AD030F0004C96
:100E100018BF31F0004CD8D180EA010000F000404A
:100E2000704790F0000F17BF90F0004F084691F008
:100E3000000F91F0004F14D092EA0C0F01D1420242
:100E40000FD193EA0C0F03D14B0218BF084608D10B
:100E500080EA010000F0004040F0FE4040F4000055
:100E6000704740F0FE4040F4400070474FF0FF0CE8
:100E70001CEAD0521EBF1CEAD15392EA0C0F93EA2F
:100E80000C0F69D0A2EB030280EA010C49024FEA81
:100E9000402037D04FF0805343EA111143EA10133A
:100EA0000CF000408B4238BF5B0042F17D024FF4F2
:100EB000000C8B4224BF5B1A40EA0C00B3EB510FCD
:100EC00024BFA3EB510340EA5C00B3EB910F24BFB6
:100ED000A3EB910340EA9C00B3EBD10F24BFA3EB3B
:100EE000D10340EADC001B0118BF5FEA1C1CE0D103
:100EF000FD2A3FF650AF8B4240EBC25008BF20F0B6
:100F0000010070470CF0004C4CEA50207F32C2BF09
:100F1000D2F1FF0340EAC250704740F400004FF0A6
:100F20000003013A37E792F0000F00F0004C02BFD7
:100F3000400010F4000F013AF9D040EA0C0093F0A1
:100F4000000F01F0004C02BF490011F4000F013BFB
:100F5000F9D041EA0C0195E70CEAD15392EA0C0F63
:100F600008D142027FF47DAF93EA0C0F7FF470AF9B
:100F7000084676E793EA0C0F04D14B023FF44CAFDE
:100F800008466EE730F0004C18BF31F0004CCAD173
:100F900030F000427FF45CAF31F000437FF43CAFAF
:100FA0005FE700BF4FF0FF3C06E000BF4FF0010CD1
:100FB00002E000BF4FF0010C4DF804CD4FEA4002B3
:100FC0004FEA41037FEA226C18BF7FEA236C11D0FD
:100FD00001B052EA530C18BF90EA010F58BFB2EBB0
:100FE000030088BFC81738BF6FEAE17018BF40F030
:100FF000010070477FEA226C02D15FEA402C05D1E4
:101000007FEA236CE4D15FEA412CE1D05DF8040B68
:10101000704700BF844608466146FFE70FB5FFF7FB
:10102000C9FF002848BF10F1000F0FBD4DF808EDB3
:10103000FFF7F4FF0CBF012000205DF808FB00BFA4
:101040004DF808EDFFF7EAFF34BF012000205DF8FE
:1010500008FB00BF4DF808EDFFF7E0FF94BF01204B
:1010600000205DF808FB00BF4DF808EDFFF7D2FF48
:1010700094BF012000205DF808FB00BF4DF808ED8B
:10108000FFF7C8FF34BF012000205DF808FB00BF58
:101090004FEA4002B2F1FE4F0FD34FF09E03B3EB85
:1010A00012620DD94FEA002343F0004310F0004FC5
:1010B00023FA02F018BF404270474FF0000070471B
:1010C00012F1610F01D1420205D110F0004008BFBA
:1010D0006FF0004070474FF00000704742000ED2A2
:1010E000B2F1FE4F0BD34FF09E03B3EB126209D463
:1010F0004FEA002343F0004323FA02F070474FF019
:101100000000704712F1610F01D1420202D14FF08D
:10111000FF3070474FF00000704700BF7BB972B9D5
:101120000029BEBF00204FF0004106E008BF0028A4
:101130001CBF6FF000414FF0FF3000F03FB8ADF141
:10114000080C6DE904CE002909DB002B1ADB0CF03A
:10115000E9F8DDF804E0DDE9022304B0704740421D
:1011600061EB4101002B1BDB0CF0DCF8DDF804E047
:10117000DDE9022304B0404261EB4101524263EBDE
:1011800043037047524263EB43030CF0CBF8DDF8A6
:1011900004E0DDE9022304B0404261EB4101704705
:1011A000524263EB43030CF0BDF8DDF804E0DDE9E7
:1011B000022304B0524263EB43037047704700BF01
:1011C0000348044B834202D0034B03B118477047D6
:1011D000A8020020A8020020000000000548064BDD
:1011E0001B1AD90F01EBA301491002D0034B03B125
:1011F00018477047A8020020A80200200000000045
:1012000010B5064C237843B9FFF7DAFF044B13B14E
:101210000448AFF300800123237010BDA802002012
:1012200000000000F0D5000808B5054B1BB10549CA
:101230000548AFF30080BDE80840FFF7CFBF00BF0F
:1012400000000000AC020020F0D500082DE9F04FAE
:101250008BB000240694079408940994554B9A691E
:1012600042F010029A619A6902F010020192019A0A
:101270009A6942F004029A619A6902F004020292A9
:10128000029A9A6942F008029A619A6902F0080289
:101290000392039A9A6942F040029A619A6902F0B5
:1012A00040020492049A9A6942F020029A619B6972
:1012B00003F020030593059BDFF8FC8022464FF4E2
:1012C0006041404606F081F8DFF8F0B02246802108
:1012D000584606F07AF8DFF8E890224640F20221FC
:1012E000484606F072F8DFF8DCA0224640F283118F
:1012F000504606F06AF8344F224644F20701384659
:1013000006F063F84FF460430693012507950894AF
:101310000226099606A9404605F03EFF8023069363
:1013200007950894099606A9584605F035FF40F23E
:101330000223069307950894099606A9484605F0E6
:101340002BFF042306930794089406A9484605F04A
:1013500023FF40F28313069307950894099606A984
:10136000504605F019FF4FF4006306930794089464
:1013700006A9384605F010FF44F2070306930795C7
:101380000894099606A9384605F006FF4FF4C053A5
:1013900006930794089506A9404605F0FDFE7823BC
:1013A00006930794089506A9384605F0F5FE0BB09C
:1013B000BDE8F08F0010024000100140000801401D
:1013C000000C0140001801400014014000B583B03A
:1013D0000A4B5A6942F001025A615B6903F001034A
:1013E0000193019B002207210B2006F0E7F80B2058
:1013F00006F01CF903B05DF804FB00BF00100240CA
:1014000010B5044602681D4B9A4204D022681C4B5A
:101410009A4203D010BD05F03DFAF7E7194800F0F5
:1014200031FB194A138801339BB2138017490A888C
:1014300001320A80012B0ED0B52B10D040F2691278
:10144000934213D0114B1B88B3F5967FE2D10F4B1B
:1014500000221A80DEE7AF2000F09CFDF2E70C4B83
:1014600001229A70FF2000F095FDEBE7FF2000F0CD
:1014700091FD054B00221A80E4E700BF002C0140DB
:1014800000040040D8070020EA040020E8040020FF
:10149000BC06002072B6FEE708B50A480A4B036096
:1014A0004FF48073836001230373002202754FF4AD
:1014B0006021C1614260036106F0C0FC00B908BD53
:1014C000FFF7E8FFC40200200024014008B50A48E5
:1014D0000A4B03604FF41653436000238360C360DC
:1014E00003610C2242618361C36106F0C3FD00B950
:1014F00008BDFFF7CFFF00BF1C04002000380140EB
:1015000008B50A480A4B03604FF4165343600023A2
:101510008360C36003610C2242618361C36106F092
:10152000A9FD00B908BDFFF7B5FF00BF60040020AA
:101530000044004008B50A480A4B03604FF41653B4
:10154000436000238360C36003610C2242618361B6
:10155000C36106F08FFD00B908BDFFF79BFF00BF18
:10156000A40400200048004000B587B00023029387
:101570000393049305930093019314484FF0804222
:1015800002604722426083604FF6FE72C2600361D0
:10159000836105F08FF890B94FF48053029302A94C
:1015A0000A4805F0BFF860B900230093019369462B
:1015B000064805F025F930B907B05DF804FBFFF7E0
:1015C00069FFFFF767FFFFF765FF00BF8C0300208F
:1015D00008B50A480A4B03600A4B43600023836046
:1015E000C3604FF48042026143618361C36103625F
:1015F00007F088F800B908BDFFF74CFF380300205A
:1016000000580040A086010000B587B00023029377
:10161000039304930593009301931448144A0260C2
:1016200048F6A0424260836040F2CF72C26003611C
:10163000836105F03FF890B94FF48053029302A9FB
:101640000A4805F06FF860B90023009301936946DA
:10165000064805F0D5F830B907B05DF804FBFFF790
:1016600019FFFFF717FFFFF715FF00BFD403002096
:101670000004004000B595B0282200210DEB0200C7
:1016800008F03AFF00230593069307930893099304
:10169000019302930393049301220A924FF480333F
:1016A0000B930E920222119212934FF4E0131393B4
:1016B0000AA805F02BF9C8B90F230593022106915A
:1016C000002307934FF480620892099305A805F060
:1016D0005DFB68B9022301934FF40043039301A813
:1016E00005F04EFC30B915B05DF804FBFFF7D2FEF3
:1016F000FFF7D0FEFFF7CEFE08B505F0B9F8FFF70B
:10170000B9FFFFF7A3FDFFF761FEFFF7C5FEFFF787
:10171000DDFEFFF7F5FEFFF70DFFFFF725FFFFF7F3
:1017200057FFFFF771FF04F0D3FD04F0A1FD04F0B3
:10173000DDFDFCE7FEE7FEE7FEE7FEE7FEE77047BC
:1017400008B5024805F086FE08BD00BFF40200207F
:1017500008B5024804F0B7FE08BD00BF100800201D
:1017600008B5024804F0AFFE08BD00BFD403002056
:1017700000B583B0114B9A6942F001029A619A69EF
:1017800002F001020092009ADA6942F08052DA61B6
:10179000DB6903F080530193019B00220F216FF05E
:1017A000010005F00BFF064A536823F0E06343F0A5
:1017B0000073536003B05DF804FB00BF00100240EB
:1017C0000000014010B586B00023029303930493F8
:1017D000059302681E4B9A4201D006B010BD044624
:1017E00003F56C439A6942F400729A619A6902F4B3
:1017F00000720092009A9A6942F010029A619B6905
:1018000003F010030193019B072302930323039327
:1018100002A9104805F0C0FC0F48104B03600023DC
:10182000436083608022C2604FF4807202614FF493
:101830008062426120228261C36105F0D5FD18B942
:10184000054B23625C62C8E7FFF724FEF8E700BFA0
:101850000024014000100140F40200200800024072
:1018600010B586B000230293039304930593026896
:10187000114B9A4201D006B010BD104CA36943F041
:101880000803A361A36903F008030093009B4FF4CE
:1018900040630293122303930323059302A908488C
:1018A00005F07AFCE36943F48003E361E36903F440
:1018B00080030193019BDEE70058004000100240C6
:1018C000000C014000B583B00368B3F1804F05D030
:1018D000124A93420ED003B05DF804FB03F50433C3
:1018E000DA6942F00102DA61DB6903F00103009377
:1018F000009BF0E70A4BDA6942F00202DA61DB6929
:1019000003F002030193019B002206211D2005F034
:1019100055FE1D2005F08AFEDDE700BF00040040F3
:101920000010024010B58AB0002306930793089375
:1019300009930368464A934207D0464A93422ED001
:10194000454A934253D00AB010BD444B9A6942F4C1
:1019500080429A619A6902F480420092009A9A69E0
:1019600042F004029A619B6903F004030193019B16
:101970004FF4007306930223079303230993384C13
:1019800006A9204605F008FC4FF480630693002367
:101990000793089306A9204605F0FEFBD3E72F4BDB
:1019A000DA6942F40032DA61DA6902F40032029252
:1019B000029A9A6942F004029A619B6903F0040357
:1019C0000393039B042306930223079303230993A2
:1019D000234C06A9204605F0DFFB082306930023CD
:1019E0000793089306A9204605F0D6FBABE71B4BEF
:1019F000DA6942F48022DA61DA6902F48022049220
:101A0000049A9A6942F020029A619B6903F02003CC
:101A10000593059B4FF480730693022307930323DA
:101A20000993104C06A9204605F0B6FB4FF400734D
:101A3000069300230793089306A9204605F0ACFB04
:101A4000094A536843F0E06343F0300353607AE798
:101A500000380140004400400048004000100240AF
:101A60000008014000140140000001400160426094
:101A70000381009BC360704708B5C368006806F027
:101A800028FB08BD08B50189406805F0A4FC08BD25
:101A9000016000238380704710B504464FF47A73C9
:101AA00004220849006806F014FB41F28833022240
:101AB0000549206806F079FB08B1002010BD01201F
:101AC000FCE700BF04000020EC04002010B5044631
:101AD0004FF47A7304220849006806F0FAFA41F2DA
:101AE000883302220549206806F05FFB08B1002018
:101AF00010BD0120FCE700BF00000020EC04002026
:101B00000160704708B54FF47A73092202490068F2
:101B100006F0DFFA002008BD1400002010B50446CE
:101B20004FF47A7309220A49006806F0D2FA41F2AA
:101B3000883309220749206806F037FB28B9054B8E
:101B40009A78D87840EA022010BD0020FCE700BF58
:101B500008000020F00400202DE9F84F00AF814676
:101B60000E464B00073303F47E73ADEB030DE846DE
:101B7000ADEB030D6D46002409E04846FFF7CEFFAC
:101B800028F81400052004F097FE0134E4B2B442B2
:101B9000F3D30023184604E038F81320104401332F
:101BA000DBB2B342F8D3FFF755F804463046FFF7EF
:101BB00055F801462046FFF759F982460024A14610
:101BC00001E00134E4B2B4421BD238F814B05846F4
:101BD000FFF744F801465046FEF78AFFFFF758FA30
:101BE0000028B8BF4042FFF739F85146FFF728FAFE
:101BF0000028E6D025F819B009F101095FFA89F942
:101C0000DFE70023184604E035F8132010440133C1
:101C1000DBB29945F8D8FFF71DF804464846FFF7B0
:101C20001DF801462046FFF721F904460749FFF752
:101C30001BFA00B1054C00212046FFF70BFA18B93A
:101C40002046BD46BDE8F88F0024F9E700007A443D
:101C500008B5806800F062F908BD00B585B00023C2
:101C60000193029303930A23019301230293072311
:101C7000039301A9006805F05DFF10B905B05DF898
:101C800004FBFFF707FCF9E708B5806800F04AF9A4
:101C900008BD08B5016082604360BDF80830038369
:101CA000FFF7D6FF08BD00002DE9F84F00AF04464E
:101CB0000E464B00073303F47E73ADEB030DE8468D
:101CC000ADEB030D6D464FF000092EE02046FFF707
:101CD000C4FF206806F012F84FF47A71206805F00E
:101CE00063FE0122218B606805F06FFB4FF48C715D
:101CF0002046FFF7C9FF206805F018FF28F81900F3
:101D000013212046FFF7C0FF42F2D0512046FFF7D3
:101D1000BBFF0022218B606805F057FB206806F0AE
:101D200011F909F101095FFA89F9B145CED3002310
:101D3000184604E038F8132010440133DBB2B342F4
:101D4000F8D3FEF787FF04463046FEF787FF0146CB
:101D50002046FFF78BF882460024A14601E00134BB
:101D6000E4B2B4421BD238F814B05846FEF776FFFE
:101D700001465046FEF7BCFEFFF78AF90028B8BFBF
:101D80004042FEF76BFF5146FFF75AF90028E6D0B4
:101D900025F819B009F101095FFA89F9DFE7288808
:101DA00001460446002303E0144611440133DBB22C
:101DB000994507D935F81320A242F5D88242F4D2CA
:101DC0001046F2E7091B081AFEF744FF044648468E
:101DD000FEF744FF01462046FFF748F80B49FEF79F
:101DE00091FF0B49FEF784FE04460A49FFF73CF9D0
:101DF00000B1084C00212046FFF72CF918B9204605
:101E0000BD46BDE8F88F0024F9E700BF7B142E3EE5
:101E1000CDCCCC3D0000FA43016000238380C38019
:101E20000381C382038343818381036343644363E8
:101E300083638364C381038243828282C3630364B6
:101E4000C361036243628362C362704730B58BB083
:101E50000446002504950595069507950895ADF867
:101E600024504FF47A7302931623019304AB00932A
:101E70000123AA22EE21006806F0DEFD9DF8102065
:101E80009DF8113043EA0223A3809DF812209DF8AB
:101E9000133043EA0223E3809DF814209DF81530A7
:101EA00043EA022323819DF816209DF8173043EA68
:101EB0000223E3829DF818209DF8193043EA02239B
:101EC00023839DF81A209DF81B3043EA0223638385
:101ED0009DF81C209DF81D3043EA022363819DF884
:101EE0001E209DF81F3043EA0223A3819DF8202085
:101EF0009DF8213043EA0223E3819DF822209DF8DA
:101F0000233043EA022323829DF824209DF82530C4
:101F100043EA0223638228460BB030BD08B504F0C3
:101F200053FA08BD036800225A6203685B6A8B4259
:101F3000FBD3704770B50646072413E00022144D0A
:101F40004FF40051284605F040FA01224FF4804139
:101F5000284605F03AFA00224FF40051284605F0D1
:101F600034FA013C002C0CDB00224FF4804108487D
:101F700005F02BFA46FA04F313F0010FDED001222C
:101F8000DDE701224FF48041014805F01EFA70BDE3
:101F90000010014038B50546154C00224FF4007181
:101FA000204605F012FA01224FF40071204605F098
:101FB0000CFA04F5806400224FF40041204605F03D
:101FC00004FA01224FF40041204605F0FEF90022F8
:101FD0004FF40041204605F0F8F92846FFF7AAFF24
:101FE00001224FF40041204605F0EFF938BD00BF53
:101FF000000C014008B50068FFF790FF08BD00B570
:1020000085B0002300930193029303938388009388
:1020100001230193022303936946806805F0BCF80D
:1020200005B05DF804FB00B585B000230093019373
:102030000293039383880093012302936946806887
:1020400005F0AAF805B05DF804FB08B50A468188DA
:10205000806805F0BAF908BD08B50068FFF762FFAF
:1020600008BD08B58188806805F0A8F908BD38B5B5
:102070000446FFF7C4FF00212046FFF7E6FF4FF4B8
:1020800096612046FFF7E8FF2046FFF7CCFF2821A6
:102090002046FFF7E1FF2046FFF7E3FF38B10025B8
:1020A0002046FFF7DEFF0028FAD1284638BD502130
:1020B0002046FFF7D1FF2046FFF7D3FF0546002853
:1020C000EED00125ECE770B50446FFF7ACFF002524
:1020D0002E460CE0C5F10702012393403343DEB2E4
:1020E0002046FFF7BEFF0028FAD10135EDB2072DDB
:1020F00015D82046FFF7B5FF0028FAD02821204642
:10210000FFF7AAFF2046FFF7ACFF0028E2D1C5F198
:10211000070201239340DB435BB21E40E0E73046F9
:1021200070BD08B58260838001600023C3600361D5
:10213000FFF760FF08BD00002DE9F84F044689460F
:102140009046FFF794FF2046FFF7BDFF82462046EA
:10215000FFF7B9FF05462046FFF7B5FF8346204647
:10216000FFF7B1FF06462046FFF7ADFF074646EAF8
:102170000B2645EA0A25ADB2B0B2FEF76FFD0A495B
:10218000FEF774FE0646E0602846FEF767FD064946
:10219000FEF76CFE2061C9F800602369C8F80030C2
:1021A0003846BDE8F88F00BF000020412DE9F84F08
:1021B00000AF83468A4616461D469B00073303F44C
:1021C000FF63ADEB030DE946ADEB030DE8460024DC
:1021D00011E0324651465846FFF7AEFFDAF80030BC
:1021E00049F82430336848F824304FF47A7004F00A
:1021F00063FB0134E4B2AC42EBD34FF0000B00249C
:1022000009E059F82B102046FEF774FC04460BF148
:10221000010B5FFA8BFBAB45F3D32846FEF71EFD9F
:10222000814601462046FEF721FECAF80000002440
:10223000002005E058F82410FEF75CFC0134E4B2FD
:10224000AC42F7D34946FEF711FE3060BD46BDE80B
:10225000F88F01600023C376828343608360C3608C
:1022600003614361C0F81730704700002DE9F84F53
:102270000746894690461C46714D724EAA22294651
:10228000304608F009FEDFF8C0B10622294658465C
:1022900008F002FE4846FEF7A7F802460B46DFF8B4
:1022A000ACA16B49504608F0F7FD42462946694803
:1022B00008F0F2FD22462946674808F0EDFDBDF81A
:1022C00028202946654808F0E7FDBDF82C2029465E
:1022D000634808F0E1FDBDF830202946614808F068
:1022E000DBFDBDF8342029465F4808F0D5FDDFF856
:1022F0007C91BDF838202946484608F0CDFDDFF82E
:102300007081BDF83C202946404608F0C5FD594C77
:1023100080220021204608F0EFF82C23238031464C
:10232000204608F0D9FD2046FDF7F2FE524B1E88EC
:1023300026525946204608F0CFFD2046FDF7E8FE1C
:1023400026525146204608F0C7FD2046FDF7E0FE24
:1023500026524049204608F0BFFD2046FDF7D8FE32
:1023600026523D49204608F0B7FD2046FDF7D0FE35
:1023700026523A49204608F0AFFD2046FDF7C8FE38
:1023800026523749204608F0A7FD2046FDF7C0FE3B
:1023900026523449204608F09FFD2046FDF7B8FE3E
:1023A00026523149204608F097FD2046FDF7B0FE41
:1023B00026524946204608F08FFD2046FDF7A8FE2C
:1023C00026524146204608F087FD2046FDF7A0FE34
:1023D00026522046FDF79CFE0646DFF8A080024606
:1023E0002946404608F058FD254DC6F57F42FF328C
:1023F0002449284608F050FDBB8B0A222249386840
:1024000005F067FE4046FDF783FEBB8B82B2414676
:10241000386805F05EFE2046FDF77AFEBB8B82B27F
:102420002146386805F055FE2846FDF771FEBB8B46
:1024300082B22946386805F04CFE0020BDE8F88FCE
:1024400008D60008C8050020BC050020280600208A
:102450000CD60008AC0500201C050020F405002067
:1024600018060020D4050020FC04002038060020B7
:10247000080600202C05002014D60008E4050020E2
:102480000C05002018D600081CD60008042304E020
:10249000013B00BF00BF00BF00BF002BF8D1704759
:1024A00010B5044602E0012004F006FA237D002B5B
:1024B000F9D10123237510BD00230375704740290E
:1024C00007D0802902D0202906D070470123437508
:1024D000704703234375704702234375F5E770B5D2
:1024E000044604F0E3F905466189606804F066FF7C
:1024F000012809D1012004F0DFF904F0D7F9401BCD
:102500009628F1D9002035E000252E4601E001355E
:102510006DB2172D16DC01222189206804F055FFC9
:10252000FFF7B4FF00222189206804F04EFFFFF777
:10253000ADFF76006189606804F040FF0128E6D1B4
:102540000136E4E786F4000600250FE00122218928
:10255000206804F03AFFFFF799FF002221892068E4
:1025600004F033FFFFF792FF0135EDB2637DAB421C
:10257000ECD8304670BD2DE9F04385B004460846DE
:102580001E46BDF83080216022816360A4F80A8075
:1025900000250095019502950395012701974FF0BD
:1025A0000309CDF80C900092694604F0F5FD019501
:1025B0000297CDF80C90CDF800806946304604F0C3
:1025C000EBFD3A462189206804F0FFFE0A2004F062
:1025D00073F92A462189206804F0F7FE0A2004F0E6
:1025E0006BF92046FFF77BFF2046FFF778FF05B029
:1025F000BDE8F0832DE9F04107468846FFF750FF1C
:102600000024254626460AE03846FFF768FF4519AC
:1026100046EBE076052004F04FF90134A4B24445BE
:10262000F2D34246002328463146FEF777FDF86094
:102630003846FFF741FFBDE8F081000000000000D0
:102640002DE9F04107468846FFF72AFF002425467A
:1026500026460AE03846FFF742FF451946EBE0768A
:10266000052004F029F90134A4B24445F2D34246CE
:10267000002328463146FEF751FDFEF7EFFA0446E7
:10268000F868FEF7EBFA01462046FEF731FA1C49DE
:10269000FEF738FBFDF7A8FE00224FF07A53FDF756
:1026A000FBFE00224FF07E53FDF7F6FE0022154B95
:1026B000FEF71CF80022144BFEF718F80EA3D3E91E
:1026C0000023FDF7E9FEFEF7BFF93969FEF7CEFBFF
:1026D00004460021FEF7B4FC58B90C492046FEF729
:1026E000CDFC00B1094C3846FFF7E6FE2046BDE8B8
:1026F000F0810024F1E700BF95D626E80B2E113EAD
:102700000000A03F0080604000003C4000007A4490
:10271000016170470160704708B504F0CDF808BD4D
:1027200070B584B0054601F0F0060901CCB2C37A59
:102730001BB146F0080644F00804012A05D042B94E
:1027400006F0FE0604F0FE0403E046F0010644F045
:10275000010446F004038DF80C300120FFF7DCFF84
:102760008DF80D6044F004038DF80E300120FFF762
:10277000D3FF8DF80F404FF47A730093042303AA1C
:102780002979286806F09CF804B070BD10B504469D
:102790000160027143719DF80830837128238372B0
:1027A0000623C3710C230372142343720823C372DC
:1027B0003220FFF7B1FF002233212046FFF7B0FFA0
:1027C000002233212046FFF7ABFF0520FFF7A4FFCF
:1027D000002232212046FFF7A3FF0520FFF79CFFD0
:1027E000002220212046FFF79BFF0520FFF794FFE2
:1027F0000022E1792046FFF793FF0022217A20464C
:10280000FFF78EFF0022617A2046FFF789FF002242
:10281000A17A2046FFF784FF002201212046FFF71E
:102820007FFF002202212046FFF77AFF10BD08B586
:1028300043798B4201D8013BD9B28379934201D8C5
:10284000013BDAB24AB1012A05D0022A0BD0032A91
:102850000CD0002101E04031C9B2002241F08001DA
:10286000FFF75EFF08BD1031C9B2F6E75031C9B2BB
:10287000F3E708B50122FFF753FF08BD38B5054659
:102880000C4603E001342846FFF7F3FF21780029C6
:10289000F8D138BD08B500220121FFF741FF05201E
:1028A000FFF73AFF08BD000030B585B004460D467D
:1028B0000A465D4901A808F0EFFA002211462046B9
:1028C000FFF7B5FF59492046FFF7D8FF632D15D90B
:1028D000A5F164039BB2642B35D9A5F1C8039BB263
:1028E000642B4CD9A5F596739BB2642B63D9A5F5DF
:1028F000C875ADB2642D7AD905B030BD0122002172
:102900002046FFF794FF4A492046FFF7B7FF012210
:102910000C212046FFF78BFF01A92046FFF7AEFFF1
:1029200001220E212046FFF782FF20212046FFF7DB
:10293000A0FF01220F212046FFF779FF202120462A
:10294000FFF797FFC4E7012200212046FFF76FFF42
:1029500037492046FFF792FF01220C212046FFF75E
:1029600066FF01A92046FFF789FF01220F212046BB
:10297000FFF75DFF20212046FFF77BFFADE7012237
:1029800000212046FFF753FF29492046FFF776FF35
:1029900001220C212046FFF74AFF01A92046FFF73C
:1029A0006DFF01220F212046FFF741FF2021204625
:1029B000FFF75FFF96E7012200212046FFF737FF70
:1029C0001B492046FFF75AFF01220C212046FFF742
:1029D0002EFF01A92046FFF751FF01220F212046BB
:1029E000FFF725FF20212046FFF743FF7FE7012265
:1029F00000212046FFF71BFF0D492046FFF73EFF51
:102A000001220C212046FFF712FF01A92046FFF703
:102A100035FF01220F212046FFF709FF2021204624
:102A2000FFF727FF68E700BF08D6000844D6000874
:102A300038D6000830B585B004460D460A46BE4972
:102A400001A808F029FA002211462046FFF7EFFE00
:102A5000BA492046FFF712FF632D39D9A5F1640367
:102A60009BB2642B59D9A5F1C8039BB2642B70D9D2
:102A7000A5F596739BB2642B40F28780A5F5C873C9
:102A80009BB2642B40F29D80A5F5FA739BB2642B38
:102A900040F2B380A5F516739BB2642B40F2C98057
:102AA000A5F52F739BB2642B40F2DF80A5F5487328
:102AB0009BB2642B40F2F580A5F561739BB2632B4A
:102AC00040F20B81B5F57A7F00F0238105B030BD6F
:102AD000012200212046FFF7AAFE99492046FFF770
:102AE000CDFE01220C212046FFF7A1FE01A92046C0
:102AF000FFF7C4FE01220E212046FFF798FE202199
:102B00002046FFF7B6FE01220F212046FFF78FFE79
:102B100020212046FFF7ADFEA0E70122002120463C
:102B2000FFF785FE86492046FFF7A8FE01220C210B
:102B30002046FFF77CFE01A92046FFF79FFE0122F9
:102B40000F212046FFF773FE20212046FFF791FE5C
:102B500089E7012200212046FFF769FE78492046D7
:102B6000FFF78CFE01220C212046FFF760FE01A931
:102B70002046FFF783FE01220F212046FFF757FE74
:102B800020212046FFF775FE72E701220021204632
:102B9000FFF74DFE6A492046FFF770FE01220C2127
:102BA0002046FFF744FE01A92046FFF767FE0122F9
:102BB0000F212046FFF73BFE20212046FFF759FE5C
:102BC0005CE7012200212046FFF731FE5C492046E8
:102BD000FFF754FE01220C212046FFF728FE01A931
:102BE0002046FFF74BFE01220F212046FFF71FFE74
:102BF00020212046FFF73DFE46E701220021204626
:102C0000FFF715FE4E492046FFF738FE01220C2142
:102C10002046FFF70CFE01A92046FFF72FFE0122F8
:102C20000F212046FFF703FE20212046FFF721FE5B
:102C300030E7012200212046FFF7F9FD40492046F8
:102C4000FFF71CFE01220C212046FFF7F0FD01A931
:102C50002046FFF713FE01220F212046FFF7E7FD74
:102C600020212046FFF705FE1AE701220021204619
:102C7000FFF7DDFD32492046FFF700FE01220C215F
:102C80002046FFF7D4FD01A92046FFF7F7FD0122FA
:102C90000F212046FFF7CBFD20212046FFF7E9FD5D
:102CA00004E7012200212046FFF7C1FD2449204608
:102CB000FFF7E4FD01220C212046FFF7B8FD01A932
:102CC0002046FFF7DBFD01220F212046FFF7AFFD75
:102CD00020212046FFF7CDFDEEE60122002120460F
:102CE000FFF7A5FD16492046FFF7C8FD01220C217C
:102CF0002046FFF79CFD01A92046FFF7BFFD0122FA
:102D00000F212046FFF793FD20212046FFF7B1FD5C
:102D1000D8E6012200212046FFF789FD0849204618
:102D2000FFF7ACFD01220C212046FFF780FD01A931
:102D30002046FFF7A3FDC9E608D6000854D60008D0
:102D400038D6000830B585B004460D460A46BE495F
:102D500001A808F0A1F8002211462046FFF767FD00
:102D6000BA492046FFF78AFD632D39D9A5F16403DE
:102D70009BB2642B59D9A5F1C8039BB2642B70D9BF
:102D8000A5F596739BB2642B40F28780A5F5C873B6
:102D90009BB2642B40F29D80A5F5FA739BB2642B25
:102DA00040F2B380A5F516739BB2642B40F2C98044
:102DB000A5F52F739BB2642B40F2DF80A5F5487315
:102DC0009BB2642B40F2F580A5F561739BB2632B37
:102DD00040F20B81B5F57A7F00F0238105B030BD5C
:102DE000012200212046FFF722FD99492046FFF7E6
:102DF00045FD01220C212046FFF719FD01A92046BF
:102E0000FFF73CFD01220E212046FFF710FD202197
:102E10002046FFF72EFD01220F212046FFF707FD78
:102E200020212046FFF725FDA0E7012200212046B2
:102E3000FFF7FDFC86492046FFF720FD01220C210B
:102E40002046FFF7F4FC01A92046FFF717FD0122F9
:102E50000F212046FFF7EBFC20212046FFF709FD5C
:102E600089E7012200212046FFF7E1FC784920464E
:102E7000FFF704FD01220C212046FFF7D8FC01A931
:102E80002046FFF7FBFC01220F212046FFF7CFFC75
:102E900020212046FFF7EDFC72E7012200212046A9
:102EA000FFF7C5FC6A492046FFF7E8FC01220C2128
:102EB0002046FFF7BCFC01A92046FFF7DFFC0122FA
:102EC0000F212046FFF7B3FC20212046FFF7D1FC5D
:102ED0005CE7012200212046FFF7A9FC5C4920465F
:102EE000FFF7CCFC01220C212046FFF7A0FC01A932
:102EF0002046FFF7C3FC01220F212046FFF797FC75
:102F000020212046FFF7B5FC46E70122002120469C
:102F1000FFF78DFC4E492046FFF7B0FC01220C2143
:102F20002046FFF784FC01A92046FFF7A7FC0122F9
:102F30000F212046FFF77BFC20212046FFF799FC5C
:102F400030E7012200212046FFF771FC404920466E
:102F5000FFF794FC01220C212046FFF768FC01A931
:102F60002046FFF78BFC01220F212046FFF75FFC74
:102F700020212046FFF77DFC1AE701220021204690
:102F8000FFF755FC32492046FFF778FC01220C215F
:102F90002046FFF74CFC01A92046FFF76FFC0122F9
:102FA0000F212046FFF743FC20212046FFF761FC5C
:102FB00004E7012200212046FFF739FC244920467E
:102FC000FFF75CFC01220C212046FFF730FC01A931
:102FD0002046FFF753FC01220F212046FFF727FC74
:102FE00020212046FFF745FCEEE601220021204685
:102FF000FFF71DFC16492046FFF740FC01220C217B
:103000002046FFF714FC01A92046FFF737FC0122F8
:103010000F212046FFF70BFC20212046FFF729FC5B
:10302000D8E6012200212046FFF701FC084920468E
:10303000FFF724FC01220C212046FFF7F8FB01A931
:103040002046FFF71BFCC9E608D6000860D600083A
:1030500038D6000830B585B004460D460A46C24948
:1030600001A807F019FF002211462046FFF7DFFBF9
:10307000BE492046FFF702FC25212046FFF7F9FB59
:1030800029212046FFF7F5FB092D38D9A5F10A03C0
:10309000DBB20A2B58D9A5F11403DBB20A2B6FD986
:1030A000A5F11E03DBB20A2B40F28680A5F12803AE
:1030B000DBB20A2B40F29C80A5F13203DBB20A2B73
:1030C00040F2B280A5F13C03DBB20A2B40F2C8808B
:1030D000A5F14603DBB20A2B40F2DE80A5F15003D6
:1030E000DBB20A2B40F2F480A5F15A03DBB2092BC4
:1030F00040F20A81642D00F0238105B030BD012229
:1031000000212046FFF793FB99492046FFF7B6FBC5
:1031100001220C212046FFF78AFB01A92046FFF778
:10312000ADFB01220D212046FFF781FB2021204627
:10313000FFF79FFB01220E212046FFF778FB20219D
:103140002046FFF796FBA1E7012200212046FFF76A
:103150006EFB87492046FFF791FB01220C21204698
:10316000FFF765FB01A92046FFF788FB01220E212E
:103170002046FFF75CFB20212046FFF77AFB8AE719
:10318000012200212046FFF752FB79492046FFF734
:1031900075FB01220C212046FFF749FB01A92046BF
:1031A000FFF76CFB01220E212046FFF740FB202198
:1031B0002046FFF75EFB73E7012200212046FFF760
:1031C00036FB6B492046FFF759FB01220C212046B4
:1031D000FFF72DFB01A92046FFF750FB01220E212E
:1031E0002046FFF724FB20212046FFF742FB5DE746
:1031F000012200212046FFF71AFB5D492046FFF718
:103200003DFB01220C212046FFF711FB01A92046BE
:10321000FFF734FB01220E212046FFF708FB202197
:103220002046FFF726FB47E7012200212046FFF753
:10323000FEFA4F492046FFF721FB01220C212046D0
:10324000FFF7F5FA01A92046FFF718FB01220E212E
:103250002046FFF7ECFA20212046FFF70AFB31E772
:10326000012200212046FFF7E2FA41492046FFF7FC
:1032700005FB01220C212046FFF7D9FA01A92046BF
:10328000FFF7FCFA01220E212046FFF7D0FA202199
:103290002046FFF7EEFA1BE7012200212046FFF748
:1032A000C6FA33492046FFF7E9FA01220C212046ED
:1032B000FFF7BDFA01A92046FFF7E0FA01220E212F
:1032C0002046FFF7B4FA20212046FFF7D2FA05E79F
:1032D000012200212046FFF7AAFA25492046FFF7E0
:1032E000CDFA01220C212046FFF7A1FA01A92046C0
:1032F000FFF7C4FA01220E212046FFF798FA202199
:103300002046FFF7B6FAEFE6012200212046FFF73C
:103310008EFA17492046FFF7B1FA01220C21204608
:10332000FFF785FA01A92046FFF7A8FA01220E212E
:103330002046FFF77CFA20212046FFF79AFAD9E6CB
:10334000012200212046FFF772FA09492046FFF7C3
:1033500095FA01220C212046FFF769FA01A92046BF
:10336000FFF78CFAC9E600BF08D600086CD6000843
:1033700038D6000830B585B004460D460A46714976
:1033800001A807F089FD002211462046FFF74FFAF9
:103390006D492046FFF772FADF212046FFF769FAF0
:1033A00043212046FFF765FA092D1AD9A5F10A0332
:1033B000DBB20A2B3AD9A5F11403DBB20A2B51D99F
:1033C000A5F11E03DBB20A2B68D9A5F12803DBB2F5
:1033D0000A2B7FD9323DEDB20A2D40F2978005B01D
:1033E00030BD012200212046FFF721FA574920462F
:1033F000FFF744FA01220C212046FFF718FA01A931
:103400002046FFF73BFA01220D212046FFF70FFA75
:1034100020212046FFF72DFA01220E212046FFF73A
:1034200006FA20212046FFF724FABFE701220021F7
:103430002046FFF7FCF945492046FFF71FFA012215
:103440000C212046FFF7F3F901A92046FFF716FAF1
:1034500001220E212046FFF7EAF920212046FFF73E
:1034600008FAA8E7012200212046FFF7E0F93749D2
:103470002046FFF703FA01220C212046FFF7D7F977
:1034800001A92046FFF7FAF901220E212046FFF795
:10349000CEF920212046FFF7ECF991E70122002127
:1034A0002046FFF7C4F929492046FFF7E7F9012232
:1034B0000C212046FFF7BBF901A92046FFF7DEF9F2
:1034C00001220E212046FFF7B2F920212046FFF706
:1034D000D0F97AE7012200212046FFF7A8F91B491D
:1034E0002046FFF7CBF901220C212046FFF79FF978
:1034F00001A92046FFF7C2F901220E212046FFF75D
:1035000096F920212046FFF7B4F963E70122002154
:103510002046FFF78CF90D492046FFF7AFF901224D
:103520000C212046FFF783F901A92046FFF7A6F9F1
:1035300001220E212046FFF77AF920212046FFF7CD
:1035400098F94CE778D6000880D6000838D60008ED
:1035500030B585B005460C460846FCF745FF0246E7
:103560000B46574901A807F097FC00212046FDF7BC
:103570007BFD20B153492046FDF76CFDE8B9524967
:103580002046FDF771FD28B150492046FDF762FD48
:10359000002840D14E492046FDF766FD28B14D492F
:1035A0002046FDF757FD00285AD14B492046FDF72C
:1035B0003DFD002870D105B030BD02220021284613
:1035C000FFF735F945492846FFF758F90222082147
:1035D0002846FFF72CF901A92846FFF74FF90222E8
:1035E0000C212846FFF723F920212846FFF741F94F
:1035F00002220D212846FFF71AF920212846FFF75D
:1036000038F902220E212846FFF711F92021284619
:10361000FFF72FF9B3E7022200212846FFF707F949
:103620002E492846FFF72AF9022208212846FFF7EB
:10363000FEF801A92846FFF721F902220D212846AC
:10364000FFF7F5F820212846FFF713F902220E2193
:103650002846FFF7ECF820212846FFF70AF999E7FA
:10366000022200212846FFF7E2F81C492846FFF70E
:1036700005F9022208212846FFF7D9F801A92846B2
:10368000FFF7FCF802220E212846FFF7D0F8202190
:103690002846FFF7EEF888E7022200212846FFF7C8
:1036A000C6F80E492846FFF7E9F802220821284605
:1036B000FFF7BDF801A92846FFF7E0F87BE700BF58
:1036C0000CD6000800001041000020410000C64256
:1036D0000000C84200C0794400007A4490D6000837
:1036E00030B585B005460C460846FCF77DFE02461F
:1036F0000B46574901A807F0CFFB00212046FDF7F4
:10370000B3FC20B153492046FDF7A4FCE8B9524967
:103710002046FDF7A9FC28B150492046FDF79AFC48
:10372000002840D14E492046FDF79EFC28B14D4966
:103730002046FDF78FFC00285AD14B492046FDF763
:1037400075FC002870D105B030BD0222002128464A
:10375000FFF76DF845492846FFF790F80222072148
:103760002846FFF764F801A92846FFF787F80222E8
:103770000B212846FFF75BF820212846FFF779F850
:1037800002220C212846FFF752F820212846FFF795
:1037900070F802220D212846FFF749F8202128461B
:1037A000FFF767F8B3E7022200212846FFF73FF84A
:1037B0002E492846FFF762F8022207212846FFF724
:1037C00036F801A92846FFF759F802220C212846AD
:1037D000FFF72DF820212846FFF74BF802220D2194
:1037E0002846FFF724F820212846FFF742F899E7FA
:1037F000022200212846FFF71AF81C492846FFF745
:103800003DF8022207212846FFF711F801A92846B2
:10381000FFF734F802220D212846FFF708F820218F
:103820002846FFF726F888E7022200212846FEF7FF
:10383000FEFF0E492846FFF721F8022207212846FD
:10384000FEF7F5FF01A92846FFF718F87BE700BF50
:103850000CD6000800001041000020410000C642C4
:103860000000C84200C0794400007A449CD6000899
:1038700010B586B0044603F02DFF01230393059392
:1038800004940023029301A902A803F0EFFF03F0C0
:103890003BFF06B010BD30B583B005460C4603F0C3
:1038A00019FF0194224600232946022003F06AFFF3
:1038B00003F02AFF03B030BD006870472DE9F04FD8
:1038C00083B08146019192469B46002700230093D6
:1038D0002BE00134E4B2544517D2A742F9D059F88D
:1038E000248041465846FDF703F901463046FDF76E
:1038F00009FA0646414659F82700FDF7F9F801464E
:103900002846FDF7FFF90546E3E729463046FDF76F
:10391000ADFA019B53F82710FDF7F4F90146009822
:10392000FDF7E8F800900137FFB2574504D20024B4
:103930004FF07E552E46CEE7009803B0BDE8F08FDD
:10394000F8B507460E461546002407E007EB84004D
:10395000FFF7B2FF46F824000134E4B2AC42F5D3DD
:103960000020F8BD08B503221D491E48FFF7E8FFF7
:1039700003221D491D48FFF7E3FF03221C491D4890
:10398000FFF7DEFF03221C491C48FFF7D9FF032283
:103990001B491C48FFF7D4FF03221B491B48FFF7B4
:1039A000CFFF03221A491B48FFF7CAFF03221A4917
:1039B0001A48FFF7C5FF032219491A48FFF7C0FF4D
:1039C000032219491948FFF7BBFF03221849194878
:1039D000FFF7B6FF032218491848FFF7B1FF08BDEB
:1039E0006C07002000FC01088407002096FC0108F9
:1039F000540700202CFD010878070020C2FD0108B3
:103A00009007002058FE010860070020EEFE010824
:103A10009800002000F80108B000002096F8010886
:103A2000800000202CF90108A4000020C2F9010840
:103A3000BC00002058FA01088C000020EEFA0108B2
:103A400008B502490248FEF765FE08BDC402002021
:103A5000CC06002010B582B0074C0022022120467F
:103A600003F0B3FC022300932346044A04490548AB
:103A7000FEF70FF902B010BD000C01408C030020CE
:103A8000C40200200007002010B5054C00220549A3
:103A90002046FEF7C1F92046FEF7D8F910BD00BF59
:103AA000600600203803002010B582B00E490F4C8C
:103AB0004FF4006300930B464FF480422046FEF71C
:103AC0005AFD0B492046FEF723FE0A212046FEF749
:103AD00091FD4FF07E512046FEF71AFE4021204610
:103AE000FEF7EDFC02B010BD001401402C070020D1
:103AF0009265FF4A08B50423024A03490348FEF7CA
:103B000010FB08BD000C01408C030020480600207B
:103B100010B5044C04492046FDF7F2FF2046FDF79E
:103B2000F1FF10BDE80600201C04002010B5064C73
:103B300006492046FDF7ACFF2046FDF7ADFF2046C5
:103B4000FDF7C4FF10BD00BFC006002060040020C8
:103B500010B502F0ABFE04464021A74803F02EFC4E
:103B600001280DD0A54B1B78013B052B00F2B0813D
:103B7000DFE813F01F0057009C00D50018016A0110
:103B8000642002F099FE40219B4803F017FC0128B5
:103B9000E8D19B48FEF77EFE984A13780133DBB2EA
:103BA00013701378DBB2062BDCD9134600221A708F
:103BB000D8E7944B1868FDF791FA81B29048FEF768
:103BC00073FE4FF40061904803F0F8FBB8B14FF476
:103BD00080518D4803F0F2FB002834D1322002F0EE
:103BE0006BFE884C4FF07E512068FCF781FF20600F
:103BF0000021FDF72FFA30B30022226023E03220AB
:103C000002F05AFE7F4C4FF07E512068FCF772FFA5
:103C100020607E49FDF728FA0028D8D07B4A226030
:103C2000D5E7784B1868FDF759FA81B27448FEF76A
:103C30003BFE774B1B78DBB2012B09D0744B1B7812
:103C4000DBB2022B27D0002010BDAF20FEF7A2F977
:103C500002F02CFE001B6F4B9842F6D9FF20FEF7B6
:103C600099F90A216C48FEF71FF86C4B1860002484
:103C700009E001216A4803F0AEFB4FF47A7002F0CC
:103C80001BFE0134E4B2042CF3D9614A13780133EA
:103C9000DBB21370D2E700220121614803F095FBEB
:103CA0005E4B19685648FFF753FCCCE7554B5868F4
:103CB000FDF714FA81B25248FEF7F6FD4FF40061A9
:103CC000514803F07BFBC0B14FF480514E4803F0E4
:103CD00075FB0028B7D1322002F0EEFD494C4FF0C1
:103CE0007E516068FCF704FF60600021FDF7B2F9C7
:103CF0000028A8D000226260A5E7322002F0DCFD97
:103D0000404C4FF07E516068FCF7F4FE60603F4924
:103D1000FDF7AAF90028D7D03C4A6260D4E7394BB6
:103D20005868FDF7DBF981B23548FEF7BDFD384B29
:103D30001B78DBB2022B12D0354B1B78DBB2032B86
:103D400081D100220121364803F03FFB334B5968F3
:103D50002B48FFF7FDFB76E7AF20FEF71BF902F0DB
:103D6000A5FD001B2B4B9842F6D9FF20FEF712F958
:103D70000A212948FDF798FF284B5860002409E0E4
:103D80000121274803F027FB4FF47A7002F094FDDD
:103D90000134E4B2042CF3D91D4A13780133DBB2A9
:103DA0001370C9E7174B9868FDF798F981B214486A
:103DB000FEF77AFD4FF40061134803F0FFFA88B371
:103DC0004FF48051104803F0F9FA00287FF43BAF1C
:103DD000322002F071FD0B4C4FF07E51A068FCF7D1
:103DE00087FEA0600021FDF735F900283FF42BAFD6
:103DF0000022A26027E700BF00140140F706002060
:103E0000A4070020B0000020001001400000FA4389
:103E1000AD060020E0930400000700208407002086
:103E200000180140322002F047FD304C4FF07E5127
:103E3000A068FCF75FFEA0602D49FDF715F900288A
:103E4000BED02B4AA260BBE7284B9868FDF746F925
:103E500081B22848FEF728FD274B1B78DBB2032BE5
:103E600013D0254B1B78DBB2042B7FF4ECAE002281
:103E70000121224803F0A9FA214B99681D48FFF758
:103E800067FBE0E6AF20FEF785F802F00FFD001BB0
:103E90001C4B9842F6D9FF20FEF77CF80A211A48FD
:103EA000FDF702FF164B9860002409E0012113483A
:103EB00003F091FA4FF47A7002F0FEFC0134E4B2A0
:103EC000042CF3D90C4A13780133DBB21370C8E722
:103ED000084C002211462046FEF7A9FC0B4920465B
:103EE000FEF7CCFC044B01221A70ACE6B0000020B7
:103EF0000000FA43A4070020AD060020001801408E
:103F000084070020E093040000070020A4D60008E6
:103F100010B502F0CBFC04464021A74803F04EFA4E
:103F200001280DD0A54B1B78013B052B00F2B08179
:103F3000DFE813F01F0057009C00D50018016A014C
:103F4000642002F0B9FC40219B4803F037FA0128B5
:103F5000E8D19B48FEF79EFC984A13780133DBB208
:103F600013701378DBB2062BDCD9134600221A70CB
:103F7000D8E7944B1868FDF7B1F881B29048FEF786
:103F800059FD4FF40061904803F018FAB8B14FF4AE
:103F900080518D4803F012FA002834D1322002F00B
:103FA0008BFC884C4FF07E512068FCF7A1FD20600F
:103FB0000021FDF74FF830B30022226023E03220C9
:103FC00002F07AFC7F4C4FF07E512068FCF792FDA6
:103FD00020607E49FDF748F80028D8D07B4A22604F
:103FE000D5E7784B1868FDF779F881B27448FEF789
:103FF00021FD774B1B78DBB2012B09D0744B1B786A
:10400000DBB2022B27D0002010BDAF20FDF7C2FF8E
:1040100002F04CFC001B6F4B9842F6D9FF20FDF7D5
:10402000B9FF0A216C48FDF797FD6C4B186000241E
:1040300009E001216A4803F0CEF94FF47A7002F0EA
:104040003BFC0134E4B2042CF3D9614A1378013308
:10405000DBB21370D2E700220121614803F0B5F909
:104060005E4B19685648FFF773FACCE7554B586812
:10407000FDF734F881B25248FEF7DCFC4FF40061E2
:10408000514803F09BF9C0B14FF480514E4803F002
:1040900095F90028B7D1322002F00EFC494C4FF0C0
:1040A0007E516068FCF724FD60600021FCF7D2FFC0
:1040B0000028A8D000226260A5E7322002F0FCFBB5
:1040C000404C4FF07E516068FCF714FD60603F4942
:1040D000FCF7CAFF0028D7D03C4A6260D4E7394BCE
:1040E0005868FCF7FBFF81B23548FEF7A3FC384B5C
:1040F0001B78DBB2022B12D0354B1B78DBB2032BC3
:1041000081D100220121364803F05FF9334B596811
:104110002B48FFF71DFA76E7AF20FDF73BFF02F0D3
:10412000C5FB001B2B4B9842F6D9FF20FDF732FF51
:104130000A212948FDF710FD284B5860002409E0AA
:104140000121274803F047F94FF47A7002F0B4FBDD
:104150000134E4B2042CF3D91D4A13780133DBB2E5
:104160001370C9E7174B9868FCF7B8FF81B2144881
:10417000FEF760FC4FF40061134803F01FF988B3A9
:104180004FF48051104803F019F900287FF43BAF39
:10419000322002F091FB0B4C4FF07E51A068FCF7EF
:1041A000A7FCA0600021FCF755FF00283FF42BAFCF
:1041B0000022A26027E700BF00140140F40600209F
:1041C000A4070020800000200010014000007A4475
:1041D000AE060020E0930400E8060020540700200B
:1041E00000180140322002F067FB304C4FF07E5146
:1041F000A068FCF77FFCA0602D49FCF735FF002884
:10420000BED02B4AA260BBE7284B9868FCF766FF3C
:1042100081B22848FEF70EFC274B1B78DBB2032B3C
:1042200013D0254B1B78DBB2042B7FF4ECAE0022BD
:104230000121224803F0C9F8214B99681D48FFF776
:1042400087F9E0E6AF20FDF7A5FE02F02FFB001B8B
:104250001C4B9842F6D9FF20FDF79CFE0A211A4814
:10426000FDF77AFC164B9860002409E00121134801
:1042700003F0B1F84FF47A7002F01EFB0134E4B29F
:10428000042CF3D90C4A13780133DBB21370C8E75E
:10429000084C002211462046FEF7C9FA0B49204679
:1042A000FEF7ECFA044B01221A70ACE68000002005
:1042B00000007A44A4070020AE0600200018014048
:1042C00054070020E0930400E8060020B4D600085C
:1042D00010B502F0EBFA04464021A74803F06EF84F
:1042E00001280DD0A54B1B78013B052B00F2B081B6
:1042F000DFE813F01F0057009C00D50018016A0189
:10430000642002F0D9FA40219B4803F057F80128B5
:10431000E8D19B48FEF7BEFA984A13780133DBB226
:1043200013701378DBB2062BDCD9134600221A7007
:10433000D8E7944B1868FCF7D1FE81B29048FEF79D
:1043400001FD4FF40061904803F038F8B8B14FF424
:1043500080518D4803F032F8002834D1322002F029
:10436000ABFA884C4FF07E512068FCF7C1FB20600F
:104370000021FCF76FFE30B30022226023E03220E0
:1043800002F09AFA7F4C4FF07E512068FCF7B2FBA6
:1043900020607E49FCF768FE0028D8D07B4A226066
:1043A000D5E7784B1868FCF799FE81B27448FEF7A0
:1043B000C9FC774B1B78DBB2012B09D0744B1B78FF
:1043C000DBB2022B27D0002010BDAF20FDF7E2FDAD
:1043D00002F06CFA001B6F4B9842F6D9FF20FDF7F4
:1043E000D9FD0A216C48FEF72BF96C4B18600024AC
:1043F00009E001216A4802F0EEFF4FF47A7002F002
:104400005BFA0134E4B2042CF3D9614A1378013326
:10441000DBB21370D2E700220121614802F0D5FF20
:104420005E4B19685648FFF793F8CCE7554B586830
:10443000FCF754FE81B25248FEF784FC4FF4006151
:10444000514802F0BBFFC0B14FF480514E4802F01A
:10445000B5FF0028B7D1322002F02EFA494C4FF0B8
:104460007E516068FCF744FB60600021FCF7F2FDC0
:104470000028A8D000226260A5E7322002F01CFAD2
:10448000404C4FF07E516068FCF734FB60603F4960
:10449000FCF7EAFD0028D7D03C4A6260D4E7394BEC
:1044A0005868FCF71BFE81B23548FEF74BFC384BD1
:1044B0001B78DBB2022B12D0354B1B78DBB2032BFF
:1044C00081D100220121364802F07FFF334B596829
:1044D0002B48FFF73DF876E7AF20FDF75BFD02F0D4
:1044E000E5F9001B2B4B9842F6D9FF20FDF752FD52
:1044F0000A212948FEF7A4F8284B5860002409E057
:104500000121274802F067FF4FF47A7002F0D4F9D6
:104510000134E4B2042CF3D91D4A13780133DBB221
:104520001370C9E7174B9868FCF7D8FD81B214489F
:10453000FEF708FC4FF40061134802F03FFF88B318
:104540004FF48051104802F039FF00287FF43BAF50
:10455000322002F0B1F90B4C4FF07E51A068FCF70D
:10456000C7FAA0600021FCF775FD00283FF42BAFCF
:104570000022A26027E700BF00140140F6060020D9
:10458000A4070020A40000200010014000007A448D
:10459000AF060020E09304002C07002078070020DD
:1045A00000180140322002F087F9304C4FF07E5164
:1045B000A068FCF79FFAA0602D49FCF755FD002884
:1045C000BED02B4AA260BBE7284B9868FCF786FD5B
:1045D00081B22848FEF7B6FB274B1B78DBB2032BD2
:1045E00013D0254B1B78DBB2042B7FF4ECAE0022FA
:1045F0000121224802F0E9FE214B99681D48FEF78F
:10460000A7FFE0E6AF20FDF7C5FC02F04FF9001B65
:104610001C4B9842F6D9FF20FDF7BCFC0A211A4832
:10462000FEF70EF8164B9860002409E001211348AC
:1046300002F0D1FE4FF47A7002F03EF90134E4B298
:10464000042CF3D90C4A13780133DBB21370C8E79A
:10465000084C002211462046FEF7E9F80B49204697
:10466000FEF70CF9044B01221A70ACE6A4000020FE
:1046700000007A44A4070020AF0600200018014083
:1046800078070020E09304002C070020C0D6000823
:1046900010B502F00BF904464021974802F08EFE57
:1046A00001280DD0954B1B78013B052B00F2C081F2
:1046B000DFE813F01F005700A000D9003C0176018D
:1046C000642002F0F9F840218B4802F077FE0128BF
:1046D000E8D18B48FEF7DEF8884A13780133DBB265
:1046E00013701378DBB2062BDCD9134600221A7044
:1046F000D8E7844B1868FCF7F1FCC1B28048FEF79C
:1047000039FE4FF40061804802F058FEB8B14FF412
:1047100080517D4802F052FE002834D1322002F050
:10472000CBF8784C4FF07E512068FCF7E1F920601F
:104730000021FCF78FFC30B30022226023E03220FE
:1047400002F0BAF86F4C4FF07E512068FCF7D2F9B6
:1047500020606E49FCF788FC0028D8D06B4A2260A4
:10476000D5E7684B1868FCF7B9FCC1B26448FEF79E
:1047700001FE674B1B78DBB2012B09D0644B1B7821
:10478000DBB2022B2BD0002010BDAF20FDF702FCC6
:1047900002F08CF8001B5F4B9842F6D9FF20FDF722
:1047A000F9FB5D4C0A235D4A21465D48FDF7FEFC9E
:1047B00022685C4B1A60002409E001215A4802F08B
:1047C0000AFE4FF47A7002F077F80134E4B2042C58
:1047D000F3D94F4A13780133DBB21370CEE70022CE
:1047E0000121514802F0F1FD4E4B19684448FEF793
:1047F000AFFEC8E7434B5868FCF770FCC1B24048B5
:10480000FEF7B8FD4FF400613F4802F0D7FDC0B19C
:104810004FF480513C4802F0D1FD0028B3D1322042
:1048200002F04AF8374C4FF07E516068FCF760F9AF
:1048300060600021FCF70EFC0028A4D0002262601A
:10484000A1E7322002F038F82E4C4FF07E5160681C
:10485000FCF750F960602D49FCF706FC0028D7D022
:104860002A4A6260D4E7274B5868FCF737FCC1B28C
:104870002348FEF77FFD264B1B78DBB2022B13D0BB
:10488000234B1B78DBB2032B7FF47DAF0022012189
:10489000254802F09AFD234B59681948FEF758FE47
:1048A00071E7AF20FDF776FB02F000F8001B194B13
:1048B0009842F6D9FF20FDF76DFB174C0A23174AE3
:1048C00021461748FDF772FC2268164B5A600024F7
:1048D00009E00121144802F07EFD4FF47A7001F0E6
:1048E000EBFF0134E4B2042CF3D9094A1378013305
:1048F000DBB21370C4E700BF00140140F8060020CB
:10490000A4070020BC0000200010014000007042FD
:10491000B1060020E09304004C070020C8060020E8
:10492000480600209007002000180140474B986877
:10493000FCF7D4FBC1B24648FEF71CFD4FF4006102
:10494000444802F03BFD50B9404C4FF07E51A06806
:10495000FCF7D0F8A0604049FCF786FBD0B94FF4D3
:1049600080513C4802F02AFD00287FF40CAF374C00
:104970004FF07E51A068FCF7BBF8A0600021FCF767
:1049800069FB00283FF4FFAE322001F095FF0022C2
:10499000A260F8E6322001F08FFF2F4AA260DEE726
:1049A0002A4B9868FCF79AFBC1B22948FEF7E2FC53
:1049B0002A4B1B78DBB2032B13D0284B1B78DBB2BE
:1049C000042B7FF4E0AE00220121254802F0FDFC1B
:1049D000244B99681E48FEF7BBFDD4E6AF20FDF7D7
:1049E000D9FA01F063FF001B1F4B9842F6D9FF2054
:1049F000FDF7D0FA1D4C0A231D4A21461D48FDF73C
:104A0000D5FB2268174B9A60002409E00121144865
:104A100002F0E1FC4FF47A7001F04EFF0134E4B291
:104A2000042CF3D90D4A13780133DBB21370C4E7B9
:104A3000074C002211462046FDF7F9FE0E4920469C
:104A4000FDF71CFF054B01221A709CE6BC000020FC
:104A5000A40700200010014000007042B1060020B1
:104A60000018014090070020E09304004C0700204C
:104A7000C806002048060020CCD6000810B501F07A
:104A800015FF04464021974802F098FC01280DD0FC
:104A9000954B1B78013B052B00F2C181DFE813F039
:104AA0001F005700A000D9003C017701642001F0ED
:104AB00003FF40218B4802F081FC0128E8D18B489C
:104AC000FDF7E8FE884A13780133DBB213701378E0
:104AD000DBB2062BDCD9134600221A70D8E7844BD0
:104AE0001868FCF7FBFAC1B28048FEF7B3FA4FF43E
:104AF0000061804802F062FCB8B14FF480517D48FB
:104B000002F05CFC002834D1322001F0D5FE784C54
:104B10004FF07E512068FBF7EBFF20600021FCF78F
:104B200099FA30B30022226023E0322001F0C4FE63
:104B30006F4C4FF07E512068FBF7DCFF20606E4920
:104B4000FCF792FA0028D8D06B4A2260D5E7684B70
:104B50001868FCF7C3FAC1B26448FEF77BFA674BEA
:104B60001B78DBB2012B09D0644B1B78DBB2022B24
:104B70002BD0002010BDAF20FDF70CFA01F096FEFF
:104B8000001B5F4B9842F6D9FF20FDF703FA5D4CFE
:104B90000A2322465C495D48FDF708FB22685C4B0E
:104BA0001A60002409E001215A4802F014FC4FF475
:104BB0007A7001F081FE0134E4B2042CF3D94F4A3B
:104BC00013780133DBB21370CEE700220121514884
:104BD00002F0FBFB4E4B19684448FEF7B9FCC8E7EE
:104BE000434B5868FCF77AFAC1B24048FEF732FAF4
:104BF0004FF400613F4802F0E1FBC0B14FF4805137
:104C00003C4802F0DBFB0028B3D1322001F054FE17
:104C1000374C4FF07E516068FBF76AFF60600021FF
:104C2000FCF718FA0028A4D000226260A1E7322025
:104C300001F042FE2E4C4FF07E516068FBF75AFFA8
:104C400060602D49FCF710FA0028D7D02A4A62602C
:104C5000D4E7274B5868FCF741FAC1B22348FEF766
:104C6000F9F9264B1B78DBB2022B13D0234B1B78B0
:104C7000DBB2032B7FF47DAF00220121254802F037
:104C8000A4FB234B59681948FEF762FC71E7AF207B
:104C9000FDF780F901F00AFE001B194B9842F6D986
:104CA000FF20FDF777F9174C0A23224616491748CB
:104CB000FDF77CFA2268164B5A60002409E00121B6
:104CC000144802F088FB4FF47A7001F0F5FD0134CE
:104CD000E4B2042CF3D9094A13780133DBB2137020
:104CE000C4E700BF00140140F5060020A40700201F
:104CF0008C000020001001400000BE42B0060020E1
:104D0000E0930400C80600204C070020480600205D
:104D10006007002000180140484B9868FCF7DEF956
:104D2000C1B24748FEF796F94FF40061454802F0DA
:104D300045FBD0B14FF48051424802F03FFB0028C0
:104D40007FF417AF322001F0B7FD3C4C4FF07E519D
:104D5000A068FBF7CDFEA0600021FCF77BF90028DE
:104D60003FF407AF0022A26003E7322001F0A4FD68
:104D7000324C4FF07E51A068FBF7BCFEA060324978
:104D8000FCF772F90028D5D02F4AA260D2E72B4B4E
:104D90009868FCF7A3F9C1B22948FEF75BF92B4BE1
:104DA0001B78DBB2032B13D0284B1B78DBB2042B10
:104DB0007FF4DFAE00220121254802F006FB254BDF
:104DC00099681F48FEF7C4FBD3E6AF20FDF7E2F871
:104DD00001F06CFD001B204B9842F6D9FF20FDF737
:104DE000D9F81E4C0A2322461D491E48FDF7DEF95C
:104DF0002268184B9A60002409E00121144802F04F
:104E0000EAFA4FF47A7001F057FD0134E4B2042C51
:104E1000F3D90E4A13780133DBB21370C4E7084CA0
:104E2000002211462046FDF702FD0F492046FDF7FE
:104E300025FD064B01221A709BE600BF8C00002066
:104E4000A4070020001001400000BE42B006002070
:104E50000018014060070020E0930400C80600200D
:104E60004C07002048060020E0D6000838B501F0C5
:104E70001DFD04464021884802F0A0FA012818D000
:104E8000864B1B78DBB2022B74D0032B00F0BA8068
:104E9000012B27D0824C002211462046FDF7C7FC8B
:104EA00080492046FDF7EAFC7F4B01221A70002062
:104EB00038BD642001F000FD4021774802F07EFA01
:104EC0000128DDD17648FDF7E5FC744A13780133FB
:104ED000DBB213701378DBB2032BD1D91346002257
:104EE0001A70CDE7714B1868FCF7F8F881B26C487E
:104EF000FDF7DAFC6C4B1B78DBB2012B12D00025DE
:104F0000694B1B78DBB2022BD1D10022012168480A
:104F100002F05BFA29466248FEF7E2FBC7E7AF20E2
:104F2000FDF738F801F0C2FC001B624B9842F6D93D
:104F3000FF20FDF72FF80A215F48FCF7B5FE034676
:104F400003225A495D48FEF7B9FC0546002409E0F2
:104F50000121574802F03FFA4FF47A7001F0ACFC9F
:104F60000134E4B2042CF3D94F4A13780133DBB295
:104F70001370C5E74D4B5868FCF7B0F881B248484C
:104F8000FDF792FC484B1B78DBB2022B12D00025B8
:104F9000454B1B78DBB2032B89D100220121444809
:104FA00002F013FA29463E48FEF79AFB7FE7AF204E
:104FB000FCF7F0FF01F07AFC001B3E4B9842F6D95B
:104FC000FF20FCF7E7FF0A213B48FCF76DFE034694
:104FD000032236493948FEF771FC0546002409E0F2
:104FE0000121334802F0F7F94FF47A7001F064FCC4
:104FF0000134E4B2042CF3D92B4A13780133DBB229
:105000001370C5E7294B9868FCF768F881B224480B
:10501000FDF74AFC244B1B78DBB2032B13D0002591
:10502000214B1B78DBB2042B7FF441AF002201211E
:105030001F4802F0CAF929461948FEF751FB36E726
:10504000AF20FCF7A7FF01F031FC001B194B984281
:10505000F6D9FF20FCF79EFF0A211748FCF724FE33
:105060000346032211491548FEF728FC0546002493
:1050700009E001210E4802F0AEF94FF47A7001F018
:105080001BFC0134E4B2042CF3D9074A1378013332
:10509000DBB21370C4E700BF00140140F10600202A
:1050A000A4070020F0D60008B2060020B0000020BF
:1050B00000180140E093040000070020840700204E
:1050C00038B501F0F3FB04464021884802F076F938
:1050D000012818D0864B1B78DBB2022B74D0032B2F
:1050E00000F0BA80012B27D0824C002211462046C6
:1050F000FDF79DFB80492046FDF7C0FB7F4B012259
:105100001A70002038BD642001F0D6FB402177489A
:1051100002F054F90128DDD17648FDF7BBFB744A53
:1051200013780133DBB213701378DBB2032BD1D9C0
:10513000134600221A70CDE7714B1868FBF7CEFFBB
:1051400081B26C48FDF776FC6C4B1B78DBB2012B0F
:1051500012D00025694B1B78DBB2022BD1D1002283
:105160000121684802F031F929466248FEF7B8FA91
:10517000C7E7AF20FCF70EFF01F098FB001B624B66
:105180009842F6D9FF20FCF705FF0A215F48FCF79B
:10519000E3FC034603225A495D48FEF78FFB0546B0
:1051A000002409E00121574802F015F94FF47A7004
:1051B00001F082FB0134E4B2042CF3D94F4A137896
:1051C0000133DBB21370C5E74D4B5868FBF786FF20
:1051D00081B24848FDF72EFC484B1B78DBB2022B0E
:1051E00012D00025454B1B78DBB2032B89D100225E
:1051F0000121444802F0E9F829463E48FEF770FADA
:105200007FE7AF20FCF7C6FE01F050FB001B3E4BD2
:105210009842F6D9FF20FCF7BDFE0A213B48FCF777
:105220009BFC0346032236493948FEF747FB0546F7
:10523000002409E00121334802F0CDF84FF47A70E0
:1052400001F03AFB0134E4B2042CF3D92B4A137871
:105250000133DBB21370C5E7294B9868FBF73EFFBB
:1052600081B22448FDF7E6FB244B1B78DBB2032B0D
:1052700013D00025214B1B78DBB2042B7FF441AF08
:10528000002201211F4802F0A0F829461948FEF724
:1052900027FA36E7AF20FCF77DFE01F007FB001B85
:1052A000194B9842F6D9FF20FCF774FE0A211748E3
:1052B000FCF752FC0346032211491548FEF7FEFA9B
:1052C0000546002409E001210E4802F084F84FF45D
:1052D0007A7001F0F1FA0134E4B2042CF3D9074AF0
:1052E00013780133DBB21370C4E700BF0014014030
:1052F000EE060020A407002000D70008B306002017
:105300008000002000180140E0930400E80600201F
:105310005407002038B501F0C9FA044640218848F6
:1053200002F04CF8012818D0864B1B78DBB2022B18
:1053300074D0032B00F0BA80012B27D0824C0022BE
:1053400011462046FDF773FA80492046FDF796FA8C
:105350007F4B01221A70002038BD642001F0ACFAA6
:105360004021774802F02AF80128DDD17648FDF780
:1053700091FA744A13780133DBB213701378DBB2FD
:10538000032BD1D9134600221A70CDE7714B186850
:10539000FBF7A4FE81B26C48FDF7D4FC6C4B1B7884
:1053A000DBB2012B12D00025694B1B78DBB2022B3C
:1053B000D1D100220121684802F007F8294662484D
:1053C000FEF78EF9C7E7AF20FCF7E4FD01F06EFAB7
:1053D000001B624B9842F6D9FF20FCF7DBFD0A2147
:1053E0005F48FDF72DF9034603225A495D48FEF751
:1053F00065FA0546002409E00121574801F0EBFF5A
:105400004FF47A7001F058FA0134E4B2042CF3D965
:105410004F4A13780133DBB21370C5E74D4B586820
:10542000FBF75CFE81B24848FDF78CFC484B1B78CB
:10543000DBB2022B12D00025454B1B78DBB2032BCD
:1054400089D100220121444801F0BFFF29463E488E
:10545000FEF746F97FE7AF20FCF79CFD01F026FA46
:10546000001B3E4B9842F6D9FF20FCF793FD0A2122
:105470003B48FDF7E5F80346032236493948FEF775
:105480001DFA0546002409E00121334801F0A3FF7D
:105490004FF47A7001F010FA0134E4B2042CF3D91D
:1054A0002B4A13780133DBB21370C5E7294B986898
:1054B000FBF714FE81B22448FDF744FC244B1B7813
:1054C000DBB2032B13D00025214B1B78DBB2042B5E
:1054D0007FF441AF002201211F4801F076FF2946E9
:1054E0001948FEF7FDF836E7AF20FCF753FD01F051
:1054F000DDF9001B194B9842F6D9FF20FCF74AFD55
:105500000A211748FDF79CF8034603221149154864
:10551000FEF7D4F90546002409E001210E4801F008
:105520005AFF4FF47A7001F0C7F90134E4B2042C49
:10553000F3D9074A13780133DBB21370C4E700BF15
:1055400000140140F0060020A40700200CD700083A
:10555000B4060020A400002000180140E0930400DD
:105560002C0700207807002038B501F09FF9044689
:1055700040218C4801F022FF012818D08A4B1B786B
:10558000DBB2022B77D0032B00F0C080012B27D099
:10559000864C002211462046FDF749F984492046F1
:1055A000FDF76CF9834B01221A70002038BD64208E
:1055B00001F082F940217B4801F000FF0128DDD194
:1055C0007A48FDF767F9784A13780133DBB2137034
:1055D0001378DBB2032BD1D9134600221A70CDE722
:1055E000754B1868FBF77AFDC1B27048FDF732FDC4
:1055F000704B1B78DBB2012B12D000256D4B1B7852
:10560000DBB2022BD1D1002201216C4801F0DDFE7A
:1056100029466648FEF764F8C7E7AF20FCF7BAFCF6
:1056200001F044F9001B664B9842F6D9FF20FCF7C5
:10563000B1FC644C0A23224663496448FCF7B6FD7A
:10564000236803225C496248FEF738F905460024C6
:1056500009E00121594801F0BEFE4FF47A7001F0D3
:105660002BF90134E4B2042CF3D9524A13780133F4
:10567000DBB21370C2E7504B5868FBF72FFDC1B285
:105680004A48FDF7E7FC4B4B1B78DBB2022B12D0EC
:105690000025484B1B78DBB2032B86D10022012169
:1056A000464801F092FE29464048FEF719F87CE78B
:1056B000AF20FCF76FFC01F0F9F8001B404B98425B
:1056C000F6D9FF20FCF766FC3E4C0A2322463E49F1
:1056D0003E48FCF76BFD2368032237493C48FEF740
:1056E000EDF80546002409E00121344801F073FE7D
:1056F0004FF47A7001F0E0F80134E4B2042CF3D9ED
:105700002C4A13780133DBB21370C2E72A4B986836
:10571000FBF7E4FCC1B22548FDF79CFC254B1B7848
:10572000DBB2032B13D00025224B1B78DBB2042BFA
:105730007FF43BAF00220121204801F046FE2946BC
:105740001A48FDF7CDFF30E7AF20FCF723FC01F04E
:10575000ADF8001B1A4B9842F6D9FF20FCF71AFC53
:10576000184C0A23224618491848FCF71FFD2368E5
:10577000032211491648FEF7A1F80546002409E066
:1057800001210E4801F027FE4FF47A7001F094F8E1
:105790000134E4B2042CF3D9064A13780133DBB2A6
:1057A0001370C1E700140140EF060020A407002099
:1057B00018D70008B50600208C0000200018014012
:1057C000E0930400C80600204C0700204806002093
:1057D0006007002038B501F069F8044640218C4884
:1057E00001F0ECFD012818D08A4B1B78DBB2022BAC
:1057F00077D0032B00F0C080012B27D0864C0022ED
:1058000011462046FDF713F884492046FDF736F887
:10581000834B01221A70002038BD642001F04CF83F
:1058200040217B4801F0CAFD0128DDD17A48FDF70F
:1058300031F8784A13780133DBB213701378DBB296
:10584000032BD1D9134600221A70CDE7754B186887
:10585000FBF744FCC1B27048FDF78CFD704B1B7820
:10586000DBB2012B12D000256D4B1B78DBB2022B73
:10587000D1D1002201216C4801F0A7FD29466648DC
:10588000FDF72EFFC7E7AF20FCF784FB01F00EF811
:10589000001B664B9842F6D9FF20FCF77BFB644C5B
:1058A0000A23644A21466448FCF780FC23680322EB
:1058B0005C496248FEF702F80546002409E0012130
:1058C000594801F088FD4FF47A7000F0F5FF01347B
:1058D000E4B2042CF3D9524A13780133DBB21370CB
:1058E000C2E7504B5868FBF7F9FBC1B24A48FDF7D5
:1058F00041FD4B4B1B78DBB2022B12D00025484BED
:105900001B78DBB2032B86D100220121464801F02F
:105910005CFD29464048FDF7E3FE7CE7AF20FCF73D
:1059200039FB00F0C3FF001B404B9842F6D9FF2023
:10593000FCF730FB3E4C0A233E4A21463E48FCF72A
:1059400035FC2368032237493C48FDF7B7FF05467D
:10595000002409E00121344801F03DFD4FF47A7044
:1059600000F0AAFF0134E4B2042CF3D92C4A1378D6
:105970000133DBB21370C2E72A4B9868FBF7AEFB2A
:10598000C1B22548FDF7F6FC254B1B78DBB2032B93
:1059900013D00025224B1B78DBB2042B7FF43BAFE6
:1059A00000220121204801F010FD29461A48FDF788
:1059B00097FE30E7AF20FCF7EDFA00F077FF001B11
:1059C0001A4B9842F6D9FF20FCF7E4FA184C0A2348
:1059D000184A21461848FCF7E9FB236803221149BD
:1059E0001648FDF76BFF0546002409E001210E482B
:1059F00001F0F1FC4FF47A7000F05EFF0134E4B284
:105A0000042CF3D9064A13780133DBB21370C1E7D3
:105A100000140140F2060020A40700202CD7000843
:105A2000B6060020BC00002000180140E0930400EE
:105A30004C070020C80600204806002090070020E0
:105A400010B52021224801F0B9FC012809D0214BD2
:105A50001B78013B042B2CD8DFE803F01C1F222508
:105A60002800642000F028FF2021194801F0A6FC3E
:105A70000128ECD11848FCF70DFF164A13780133C2
:105A8000DBB213701378DBB2052BE0D9134600228A
:105A90001A70DCE7FFF7EAF910BDFFF711FBFBE72F
:105AA000FFF738FCF8E7FFF75FFDF5E7FFF792FE39
:105AB000F2E7094C002211462046FCF7B8FE0749E0
:105AC0002046FCF7DBFE322000F0F6FEE4E700BFE4
:105AD00000140140EC060020A40700203CD7000879
